:100000000C9461000C9440010C946D010C947E00E2
:100010000C947E000C947E000C947E000C947E0068
:100020000C947E000C947E000C947E000C947E0058
:100030000C947E000C947E000C947E000C947E0048
:100040000C949A010C947E000C947E000C947E001B
:100050000C947E000C947E000C947E000C947E0028
:100060000C947E000C947E00000000002400270009
:100070002A0000000000250028002B0000000000DE
:1000800023002600290004040404040404040202DA
:100090000202020203030303030301020408102007
:1000A0004080010204081020010204081020000012
:1000B0000007000201000003040600000000000029
:1000C000000011241FBECFEFD8E0DEBFCDBF11E08E
:1000D000A0E0B1E0E8EEF7E002C005900D92A0309C
:1000E000B107D9F711E0A0E0B1E001C01D92A13144
:1000F000B107E1F70E94BC030C94F2030C940000DA
:1001000080910201909103010196909303018093E5
:1001100002010895EF92FF920F931F93CF93DF9305
:100120007B018C01EA012130310531F482E160E08C
:100130000E94150383E105C083E160E00E9415037E
:1001400082E161E00E9415038FEF90E09C01C29F65
:10015000C001C39F900DD29F900D112464E670E002
:100160000E94CB038AE00E947602E114F1040105AB
:10017000110571F08091020190910301AA2797FD6A
:10018000A095BA2F8E159F05A007B1074CF406C0A5
:100190008BE00E946903892BD9F302C00000FECFD7
:1001A00010920301109202018AE060E070E00E9468
:1001B000760260ED77E080E090E00E94E201DF915E
:1001C000CF911F910F91FF90EF90089568EE73E02B
:1001D00080E090E044E650E020E030E00E948A00B9
:1001E00008951092030110920201109201011092E1
:1001F00000018DE061E00E94D6028CE060E00E9488
:10020000D6028BE060E00E94D60283E161E00E94AA
:10021000D60282E161E00E94D6028AE061E00E949B
:10022000D60282E060E00E94D60280E060E870E0E2
:1002300043E050E00E941D010895823000F5E82F50
:10024000F0E0EE0FFF1FEC5FFE4F718360838823A9
:1002500019F08130A1F408C0809169008C7F842B53
:1002600080936900E89A089580916900440F551FB2
:10027000440F551F837F842B80936900E99A08956A
:100280001F920F920FB60F9211242F933F934F930B
:100290005F936F937F938F939F93AF93BF93EF93EE
:1002A000FF938091040190910501892B29F0E09141
:1002B0000401F09105010995FF91EF91BF91AF9174
:1002C0009F918F917F916F915F914F913F912F916E
:1002D0000F900FBE0F901F9018951F920F920FB6A0
:1002E0000F9211242F933F934F935F936F937F93BC
:1002F0008F939F93AF93BF93EF93FF9380910601EA
:1003000090910701892B29F0E0910601F0910701F6
:100310000995FF91EF91BF91AF919F918F917F913F
:100320006F915F914F913F912F910F900FBE0F9062
:100330001F9018951F920F920FB60F9211242F93B2
:100340003F938F939F93AF93BF9380910C019091B4
:100350000D01A0910E01B0910F0130911001019695
:10036000A11DB11D232F2D5F2D3720F02D57019694
:10037000A11DB11D2093100180930C0190930D01DC
:10038000A0930E01B0930F01809108019091090193
:10039000A0910A01B0910B010196A11DB11D80939E
:1003A000080190930901A0930A01B0930B01BF913A
:1003B000AF919F918F913F912F910F900FBE0F9012
:1003C0001F9018959B01AC017FB7F89480910801AC
:1003D00090910901A0910A01B0910B0166B5A89B0B
:1003E00005C06F3F19F00196A11DB11D7FBFBA2F47
:1003F000A92F982F8827860F911DA11DB11D62E09E
:10040000880F991FAA1FBB1F6A95D1F7BC012DC089
:10041000FFB7F8948091080190910901A0910A0119
:10042000B0910B01E6B5A89B05C0EF3F19F001960E
:10043000A11DB11DFFBFBA2FA92F982F88278E0F9E
:10044000911DA11DB11DE2E0880F991FAA1FBB1FBE
:10045000EA95D1F7861B970B885E9340C8F221502E
:1004600030404040504068517C4F211531054105D6
:10047000510571F60895789484B5826084BD84B581
:10048000816084BD85B5826085BD85B5816085BD8F
:10049000EEE6F0E0808181608083E1E8F0E01082A8
:1004A000808182608083808181608083E0E8F0E0E9
:1004B000808181608083E1EBF0E0808184608083D3
:1004C000E0EBF0E0808181608083EAE7F0E080810A
:1004D000846080838081826080838081816080836A
:1004E0008081806880831092C10008951F93CF930C
:1004F000DF93182FEB0161E00E94D602209709F4E8
:100500004AC0CF3FD10509F449C0E12FF0E0E255E0
:10051000FF4F84918330C1F0843028F4813051F052
:100520008230B1F50CC0863019F1873049F1843042
:1005300079F514C084B5806884BDC7BD33C084B567
:10054000806284BDC8BD2EC0809180008068809389
:100550008000D0938900C093880024C080918000DF
:10056000806280938000D0938B00C0938A001AC071
:100570008091B00080688093B000C093B30012C037
:100580008091B00080628093B000C093B4000AC034
:10059000C038D1051CF4812F60E002C0812F61E0DA
:1005A0000E941503DF91CF911F910895CF93DF93A0
:1005B000482F50E0CA0186569F4FFC0134914A579C
:1005C0005F4FFA018491882369F190E0880F991FA9
:1005D000FC01E859FF4FA591B491FC01EE58FF4F83
:1005E000C591D491662351F42FB7F8948C91932F31
:1005F000909589238C93888189230BC0623061F4A4
:100600002FB7F8948C91932F909589238C938881A0
:10061000832B88832FBF06C09FB7F8948C91832BC0
:100620008C939FBFDF91CF910895482F50E0CA016E
:1006300082559F4FFC012491CA0186569F4FFC01B1
:1006400094914A575F4FFA013491332309F440C023
:10065000222351F1233071F0243028F42130A1F00D
:10066000223011F514C02630B1F02730C1F024300B
:10067000D9F404C0809180008F7703C080918000FE
:100680008F7D8093800010C084B58F7702C084B5C1
:100690008F7D84BD09C08091B0008F7703C08091A9
:1006A000B0008F7D8093B000E32FF0E0EE0FFF1FCE
:1006B000EE58FF4FA591B4912FB7F894662321F41B
:1006C0008C919095892302C08C91892B8C932FBF9C
:1006D0000895682F70E0CB0182559F4FFC01249153
:1006E000CB0186569F4FFC0144916A577F4FFB0117
:1006F0009491992319F420E030E03CC0222351F179
:10070000233071F0243028F42130A1F0223011F58B
:1007100014C02630B1F02730C1F02430D9F404C021
:10072000809180008F7703C0809180008F7D8093BF
:10073000800010C084B58F7702C084B58F7D84BDE2
:1007400009C08091B0008F7703C08091B0008F7D89
:100750008093B000892F90E0880F991F84589F4F95
:10076000FC01A591B4918C9120E030E0842311F03C
:1007700021E030E0C9010895CF93DF930E943B024E
:100780000E94F100C0E0D0E00E94E6002097E1F373
:100790000E940000F9CF97FB092E07260AD077FDAB
:1007A00004D00CD006D000201AF4709561957F4FCC
:1007B0000895F6F7909581959F4F0895AA1BBB1B4E
:1007C00051E107C0AA1FBB1FA617B70710F0A61B51
:1007D000B70B881F991F5A95A9F780959095BC0172
:0807E000CD010895F894FFCF4C
:00000001FF
