:100000000C947B000C9479030C94A6030C94A3002D
:100010000C94A3000C94A3000C94A3000C94A300D4
:100020000C94A3000C94A3000C94A3000C94A300C4
:100030000C94A3000C94A3000C94A3000C94A300B4
:100040000C94D3030C94A3000C94A3000C94A30071
:100050000C94A3000C94A3000C94A3000C94A30094
:100060000C94A3000C94A300EE022402E602EE021C
:100070009F02E602EE028002E602EE024302620204
:10008000E602EE029F02E602EE02DE02E602EE0267
:10009000E102E602EE02F402140300000000240074
:1000A00027002A0000000000250028002B00000087
:1000B00000002300260029000404040404040404AE
:1000C0000202020202020303030303030102040803
:1000D00010204080010204081020010204081020B2
:1000E00000000007000201000003040600000000F9
:1000F00000000000BE0111241FBECFEFD8E0DEBF1C
:10010000CDBF11E0A0E0B1E0E6E6FCE002C0059062
:100110000D92A030B107D9F711E0A0E0B1E001C025
:100120001D92AD31B107E1F710E0C6EFD0E004C099
:100130002297FE010E942D06C43FD107C9F70E94F5
:10014000F5050C9431060C9400006F927F928F920B
:100150009F92AF92BF92CF92DF92EF92FF920F9356
:100160001F93CF93DF93EC014B015A0168018AE0A2
:10017000B9010E94AF0424E630E08E819F81A9017D
:10018000481B590BCA01B8010E9404067D836C8389
:100190003B832A83EE24FF2483E0682E712C4DC01C
:1001A000A114B10439F4C701837090708301081B56
:1001B000190B07C051E0A516B10419F487010370AB
:1001C00010700130110589F00230110524F4011579
:1001D000110541F024C00230110571F00330110502
:1001E000F1F40DC08CE061E002C08CE060E00E94A0
:1001F0004E058DE061E009C08CE060E002C08CE05B
:1002000061E00E944E058DE060E00E944E056A812B
:100210007B81882777FD8095982F0E941B04EC1422
:10022000FD0444F48A819B812C813D81821B930BC8
:100230009B838A830894E11CF11CE814F9040CF4F4
:10024000AFCF8AE060E070E00E94AF04DF91CF9111
:100250001F910F91FF90EF90DF90CF90BF90AF90E4
:100260009F908F907F906F9008950F931F93FC0144
:100270002081318160E170E041E050E000E110E078
:100280000E94A5001F910F9108950F931F93FC01E9
:100290002081318168E070E041E050E000E010E052
:1002A0000E94A5001F910F9108950F931F93FC01C9
:1002B000208131816AE070E040E050E008E010E029
:1002C0000E94A5001F910F9108950F931F93FC01A9
:1002D000208131816EE170E040E050E008E010E004
:1002E0000E94A50064EF71E080E090E00E941B0492
:1002F0001F910F9108950F931F938C01109260002E
:10030000E1E8F0E08081887F81608083F801578395
:100310004683718360838AE061E00E940F0586E076
:1003200061E00E940F058CE061E00E940F0587E00C
:1003300061E00E940F058DE061E00E940F0586E0FC
:1003400060E00E944E0587E060E00E944E0584E672
:1003500090E0F801938382838AE060E070E00E947D
:10036000AF041F910F9108958091040190910501B0
:1003700001969093050180930401089588E091E02F
:100380006FEF70E044E150E00E947B010895CF934D
:10039000DF93EC014130510531F48FE060E00E94C1
:1003A0004E058EE005C08EE060E00E944E058FE0B5
:1003B00061E00E944E0582E061E00E944E052097B8
:1003C00061F480E10E94A205892BD9F30DC061E0A0
:1003D00070E080E090E00E941B0480910401909105
:1003E00005018C179D079CF382E060E00E944E059A
:1003F0008EE060E00E944E058FE060E00E944E05B6
:1004000064EF71E080E090E00E941B04DF91CF91E7
:10041000089500008091060190910701019721F451
:1004200088E091E00E944501E0910201F091030112
:10043000E931F10508F005C1EC5CFF4FEE0FFF1F3D
:100440000590F491E02D099488E893E164E670E06A
:1004500041E050E00E94C7018091000190910101AC
:100460002091040130910501820F931F90930101A7
:1004700080930001109205011092040188E091E040
:100480000E94550157C080E090E064E670E040E0D3
:1004900050E00E94C70180910001909101012091DC
:1004A000040130910501821B930B9093010180930D
:1004B00000011092050110920401109207011092A0
:1004C0000601A8C08AEF90E064E670E041E050E0E9
:1004D0000E94C701809100019091010120910401C7
:1004E00030910501820F931F9093010180930001C9
:1004F000109205011092040188E091E00E946501CC
:1005000084E893E064E670E041E050E00E94C701B7
:100510008091000190910101209104013091050129
:10052000820F931F909301018093000110920501A7
:100530001092040182E161E00E944E056BC080E0F0
:1005400090E064E670E040E050E00E94C7018091D6
:100550000001909101012091040130910501821B5D
:10056000930B90930101809300011092050110926A
:1005700004018AEF90E064E670E041E050E00E9400
:10058000C7018091000190910101209104013091F7
:100590000501820F931F9093010180930001109237
:1005A00005011092040188E091E00E94350181E08C
:1005B00090E09093070180930601BCCF8CED95E00D
:1005C000A1CF88E091E00E946501B4CF83E10E9451
:1005D000A205892BB1F582E160E0AECF83E10E94F4
:1005E000A205019771F516C080910001909101015B
:1005F00064E670E040E050E00E94C70182E161E003
:100600000E944E0510920501109204011092010102
:100610001092000180910201909103010196909344
:10062000030180930201089583E10E94A205892BB2
:1006300041F482E160E00E944E05109203011092A5
:10064000020108951092010110920001109205011B
:1006500010920401109203011092020110920701FE
:100660001092060182E161E00E940F0583E160E0E3
:100670000E940F0580E160E00E940F058EE061E0BE
:100680000E940F058FE061E00E940F0582E061E0AB
:100690000E940F0583E060E00E940F0581E064EB9B
:1006A00071E043E050E00E9456030895823000F567
:1006B000E82FF0E0EE0FFF1FE05FFE4F71836083D5
:1006C000882319F08130A1F408C0809169008C7FE3
:1006D000842B80936900E89A089580916900440F03
:1006E000551F440F551F837F842B80936900E99A1F
:1006F00008951F920F920FB60F9211242F933F93DC
:100700004F935F936F937F938F939F93AF93BF9319
:10071000EF93FF938091100190911101892B29F0A3
:10072000E0911001F09111010995FF91EF91BF91B6
:10073000AF919F918F917F916F915F914F913F9179
:100740002F910F900FBE0F901F9018951F920F9230
:100750000FB60F9211242F933F934F935F936F9394
:100760007F938F939F93AF93BF93EF93FF9380916A
:10077000120190911301892B29F0E0911201F0915F
:1007800013010995FF91EF91BF91AF919F918F91C7
:100790007F916F915F914F913F912F910F900FBE7D
:1007A0000F901F9018951F920F920FB60F92112461
:1007B0002F933F938F939F93AF93BF938091180193
:1007C00090911901A0911A01B0911B0130911C0167
:1007D0000196A11DB11D232F2D5F2D3720F02D5720
:1007E0000196A11DB11D20931C01809318019093C7
:1007F0001901A0931A01B0931B01809114019091EB
:100800001501A0911601B09117010196A11DB11D0E
:100810008093140190931501A0931601B0931701D2
:10082000BF91AF919F918F913F912F910F900FBEEC
:100830000F901F9018959B01AC017FB7F8948091A1
:10084000140190911501A0911601B091170166B5A0
:10085000A89B05C06F3F19F00196A11DB11D7FBF78
:10086000BA2FA92F982F8827860F911DA11DB11D82
:1008700062E0880F991FAA1FBB1F6A95D1F7BC01C0
:100880002DC0FFB7F8948091140190911501A091AB
:100890001601B0911701E6B5A89B05C0EF3F19F00E
:1008A0000196A11DB11DFFBFBA2FA92F982F882730
:1008B0008E0F911DA11DB11DE2E0880F991FAA1F87
:1008C000BB1FEA95D1F7861B970B885E9340C8F251
:1008D000215030404040504068517C4F2115310537
:1008E0004105510571F60895789484B5826084BD00
:1008F00084B5816084BD85B5826085BD85B5816024
:1009000085BDEEE6F0E0808181608083E1E8F0E083
:100910001082808182608083808181608083E0E8B2
:10092000F0E0808181608083E1EBF0E08081846091
:100930008083E0EBF0E0808181608083EAE7F0E093
:1009400080818460808380818260808380818160F7
:1009500080838081806880831092C10008951F93F6
:10096000CF93DF93182FEB0161E00E940F052097D2
:1009700009F44AC0CF3FD10509F449C0E12FF0E0A6
:10098000E052FF4F84918330C1F0843028F48130ED
:1009900051F08230B1F50CC0863019F1873049F141
:1009A000843079F514C084B5806884BDC7BD33C078
:1009B00084B5806284BDC8BD2EC0809180008068EF
:1009C00080938000D0938900C093880024C08091D8
:1009D0008000806280938000D0938B00C0938A0057
:1009E0001AC08091B00080688093B000C093B300BB
:1009F00012C08091B00080628093B000C093B400B8
:100A00000AC0C038D1051CF4812F60E002C0812FDC
:100A100061E00E944E05DF91CF911F910895CF9321
:100A2000DF93482F50E0CA0184539F4FFC0134915B
:100A300048545F4FFA018491882369F190E0880F50
:100A4000991FFC01E656FF4FA591B491FC01EC55AE
:100A5000FF4FC591D491662351F42FB7F8948C9130
:100A6000932F909589238C93888189230BC06230C2
:100A700061F42FB7F8948C91932F909589238C93E0
:100A80008881832B88832FBF06C09FB7F8948C91F1
:100A9000832B8C939FBFDF91CF910895482F50E017
:100AA000CA0180529F4FFC012491CA0184539F4F79
:100AB000FC01949148545F4FFA013491332309F4B7
:100AC00040C0222351F1233071F0243028F421302A
:100AD000A1F0223011F514C02630B1F02730C1F05A
:100AE0002430D9F404C0809180008F7703C08091B6
:100AF00080008F7D8093800010C084B58F7702C006
:100B000084B58F7D84BD09C08091B0008F7703C00C
:100B10008091B0008F7D8093B000E32FF0E0EE0F66
:100B2000FF1FEC55FF4FA591B4912FB7F8946623A2
:100B300021F48C919095892302C08C91892B8C9300
:100B40002FBF0895682F70E0CB0180529F4FFC01AA
:100B50002491CB0184539F4FFC01449168547F4FF3
:100B6000FB019491992319F420E030E03CC022234A
:100B700051F1233071F0243028F42130A1F02230DB
:100B800011F514C02630B1F02730C1F02430D9F46B
:100B900004C0809180008F7703C0809180008F7D9A
:100BA0008093800010C084B58F7702C084B58F7D9C
:100BB00084BD09C08091B0008F7703C08091B000E0
:100BC0008F7D8093B000892F90E0880F991F825508
:100BD0009F4FFC01A591B4918C9120E030E08423DB
:100BE00011F021E030E0C9010895CF93DF930E9416
:100BF00074040E942203C0E0D0E00E940902209702
:100C0000E1F30E940000F9CF97FB092E07260AD0D6
:100C100077FD04D00CD006D000201AF470956195B1
:100C20007F4F0895F6F7909581959F4F0895AA1BE1
:100C3000BB1B51E107C0AA1FBB1FA617B70710F0C7
:100C4000A61BB70B881F991F5A95A9F780959095F9
:100C5000BC01CD010895EE0FFF1F0590F491E02D2A
:060C60000994F894FFCF97
:00000001FF
