:100000000C9462000C9476030C94A3030C948A0065
:100010000C948A000C948A000C948A000C948A0038
:100020000C948A000C948A000C948A000C948A0028
:100030000C948A000C948A000C948A000C948A0018
:100040000C94D0030C948A000C948A000C948A00BF
:100050000C948A000C948A000C948A000C948A00F8
:100060000C948A000C948A000000000024002700F1
:100070002A0000000000250028002B0000000000DE
:1000800023002600290004040404040404040202DA
:100090000202020203030303030301020408102007
:1000A0004080010204081020010204081020000012
:1000B0000007000201000003040600000000000029
:1000C0000000950111241FBECFEFD8E0DEBFCDBFE9
:1000D00011E0A0E0B1E0E0E6FCE002C005900D9286
:1000E000A030B107D9F711E0A0E0B1E001C01D9246
:1000F000AD31B107E1F710E0C4ECD0E004C02297C5
:10010000FE010E942A06C23CD107C9F70E94F205EF
:100110000C942E060C9400006F927F928F929F9207
:10012000AF92BF92CF92DF92EF92FF920F931F9305
:10013000CF93DF93EC014B015A01680189E0B901CB
:100140000E94AC0424E630E08E819F81A901481B07
:10015000590BCA01B8010E9401067D836C833B8361
:100160002A83EE24FF2483E0682E712C4DC0A11455
:10017000B10439F4C701837090708301081B190B17
:1001800007C051E0A516B10419F48701037010707F
:100190000130110589F00230110524F40115110513
:1001A00041F024C00230110571F003301105F1F463
:1001B0000DC084E061E002C084E060E00E944B0575
:1001C00087E061E009C084E060E002C084E061E0B3
:1001D0000E944B0587E060E00E944B056A817B81AD
:1001E000882777FD8095982F0E941804EC14FD0451
:1001F00044F48A819B812C813D81821B930B9B83DC
:100200008A830894E11CF11CE814F9040CF4AFCFC4
:1002100089E060E070E00E94AC04DF91CF911F9113
:100220000F91FF90EF90DF90CF90BF90AF909F9095
:100230008F907F906F9008950F931F93FC01208102
:10024000318160E170E041E050E000E110E00E94A7
:100250008C001F910F9108950F931F93FC01208133
:10026000318168E070E041E050E000E010E00E9481
:100270008C001F910F9108950F931F93FC01208113
:1002800031816EE170E040E050E008E010E00E9453
:100290008C0064EF71E080E090E00E9418041F91F0
:1002A0000F9108950F931F938C0110926000E1E865
:1002B000F0E08081887F81608083F80157834683E6
:1002C0007183608389E061E00E940C0586E061E053
:1002D0000E940C0584E061E00E940C0585E061E06D
:1002E0000E940C0587E061E00E940C0586E060E05A
:1002F0000E944B0585E060E00E944B0584E690E09B
:10030000F8019383828389E060E070E00E94AC048E
:100310001F910F910895809104019091050101961C
:100320009093050180930401089588E091E06FEFB8
:1003300070E044E150E00E94520108950F931F9332
:10034000CF93DF938C01EB014130510531F482E111
:1003500060E00E944B0583E105C083E160E00E94FC
:100360004B0582E161E00E944B058FEF90E09C011C
:10037000C29FC001C39F900DD29F900D112464E6CF
:1003800070E00E9401068AE00E94AC04011511058C
:1003900061F481E10E949F05892BD9F30DC061E0D2
:1003A00070E080E090E00E94180480910401909138
:1003B0000501801791079CF38AE060E070E00E94DD
:1003C000AC0483E160E00E944B0582E160E00E94A2
:1003D0004B0564EF71E080E090E00E941804DF912B
:1003E000CF911F910F910895000080910601909187
:1003F0000701019721F488E091E00E942C0180918F
:100400000201909103018730910509F489C0883079
:100410009105D4F48330910509F4DDC08430910551
:100420005CF48130910579F1823091050CF06DC05A
:10043000892B09F4D0C008958530910509F465C071
:1004400006970CF0C8C022C08B30910509F4A4C0F7
:100450008C30910544F48930910509F4BCC00A97A9
:100460000CF07BC052C08D30910509F4B4C08D30C2
:1004700091050CF44AC08E30910509F4B2C00F9773
:1004800009F0DCC0CEC088E893E14CC080E090E089
:1004900064E670E040E050E00E949E01809100011F
:1004A000909101012091040130910501821B930B71
:1004B00090930101809300011092050110920401B4
:1004C0008AEF90E064E670E041E050E00E949E0117
:1004D000809100019091010120910401309105016A
:1004E000820F931F909301018093000110920501E8
:1004F0001092040188E091E00E941C0181E090E0EC
:10050000909307018093060125C08CE00E949F050F
:10051000892B09F093C08DE060E00E944B0577C005
:1005200084E893E064E670E041E050E00E949E01C0
:100530008091000190910101209104013091050109
:10054000820F931F90930101809300011092050187
:10055000109204018DE061E0E0CF80E090E064E67D
:1005600070E040E050E00E949E0180910001909177
:1005700001012091040130910501821B930B90939E
:100580000101809300011092050110920401109264
:100590000701109206013BC08AEF90E064E670E02C
:1005A00041E050E00E949E01809100019091010184
:1005B0002091040130910501820F931F9093010156
:1005C00080930001109205011092040188E091E0EF
:1005D0000E943C01A5CF8CE00E949F05019771F518
:1005E00016C0809100019091010164E670E040E046
:1005F00050E00E949E018DE061E00E944B05109248
:1006000005011092040110920101109200018091E5
:1006100002019091030101969093030180930201DE
:1006200008958CE00E949F05892B41F48DE060E0E5
:100630000E944B051092030110920201089510923E
:100640000101109200011092050110920401109214
:1006500003011092020110920701109206018DE031
:1006600061E00E940C058CE060E00E940C0581E1D5
:1006700060E00E940C0583E161E00E940C0582E1CC
:1006800061E00E940C058AE061E00E940C0582E0B6
:1006900060E00E940C0580E06BE871E043E050E010
:1006A0000E9453030895823000F5E82FF0E0EE0F2A
:1006B000FF1FE05FFE4F71836083882319F0813054
:1006C000A1F408C0809169008C7F842B809369001D
:1006D000E89A089580916900440F551F440F551FF3
:1006E000837F842B80936900E99A08951F920F926B
:1006F0000FB60F9211242F933F934F935F936F93F5
:100700007F938F939F93AF93BF93EF93FF938091CA
:10071000100190911101892B29F0E0911001F091C5
:1007200011010995FF91EF91BF91AF919F918F9129
:100730007F916F915F914F913F912F910F900FBEDD
:100740000F901F9018951F920F920FB60F921124C1
:100750002F933F934F935F936F937F938F939F93C9
:10076000AF93BF93EF93FF93809112019091130188
:10077000892B29F0E0911201F09113010995FF9165
:10078000EF91BF91AF919F918F917F916F915F9109
:100790004F913F912F910F900FBE0F901F90189582
:1007A0001F920F920FB60F9211242F933F938F93A6
:1007B0009F93AF93BF938091180190911901A091DD
:1007C0001A01B0911B0130911C010196A11DB11DB0
:1007D000232F2D5F2D3720F02D570196A11DB11D20
:1007E00020931C018093180190931901A0931A0182
:1007F000B0931B018091140190911501A0911601F5
:10080000B09117010196A11DB11D80931401909321
:100810001501A0931601B0931701BF91AF919F915D
:100820008F913F912F910F900FBE0F901F901895B1
:100830009B01AC017FB7F894809114019091150150
:10084000A0911601B091170166B5A89B05C06F3F36
:1008500019F00196A11DB11D7FBFBA2FA92F982FA6
:100860008827860F911DA11DB11D62E0880F991F79
:10087000AA1FBB1F6A95D1F7BC012DC0FFB7F89422
:100880008091140190911501A0911601B09117016A
:10089000E6B5A89B05C0EF3F19F00196A11DB11D5B
:1008A000FFBFBA2FA92F982F88278E0F911DA11D4A
:1008B000B11DE2E0880F991FAA1FBB1FEA95D1F76F
:1008C000861B970B885E9340C8F221503040404011
:1008D000504068517C4F211531054105510571F695
:1008E0000895789484B5826084BD84B5816084BDA8
:1008F00085B5826085BD85B5816085BDEEE6F0E099
:10090000808181608083E1E8F0E0108280818260F4
:100910008083808181608083E0E8F0E08081816075
:100920008083E1EBF0E0808184608083E0EBF0E0A5
:10093000808181608083EAE7F0E080818460808349
:1009400080818260808380818160808380818068F3
:1009500080831092C10008951F93CF93DF93182FC7
:10096000EB0161E00E940C05209709F44AC0CF3FDB
:10097000D10509F449C0E12FF0E0E255FF4F849121
:100980008330C1F0843028F4813051F08230B1F5E9
:100990000CC0863019F1873049F1843079F514C0E4
:1009A00084B5806884BDC7BD33C084B5806284BD12
:1009B000C8BD2EC080918000806880938000D09355
:1009C0008900C093880024C0809180008062809359
:1009D0008000D0938B00C0938A001AC08091B00031
:1009E00080688093B000C093B30012C08091B000C3
:1009F00080628093B000C093B4000AC0C038D105B3
:100A00001CF4812F60E002C0812F61E00E944B0541
:100A1000DF91CF911F910895CF93DF93482F50E03E
:100A2000CA0186569F4FFC0134914A575F4FFA0125
:100A30008491882369F190E0880F991FFC01E8599F
:100A4000FF4FA591B491FC01EE58FF4FC591D49191
:100A5000662351F42FB7F8948C91932F90958923A6
:100A60008C93888189230BC0623061F42FB7F8948E
:100A70008C91932F909589238C938881832B8883E5
:100A80002FBF06C09FB7F8948C91832B8C939FBF88
:100A9000DF91CF910895482F50E0CA0182559F4FB2
:100AA000FC012491CA0186569F4FFC0194914A573C
:100AB0005F4FFA013491332309F440C0222351F1EE
:100AC000233071F0243028F42130A1F0223011F5C8
:100AD00014C02630B1F02730C1F02430D9F404C05E
:100AE000809180008F7703C0809180008F7D8093FC
:100AF000800010C084B58F7702C084B58F7D84BD1F
:100B000009C08091B0008F7703C08091B0008F7DC5
:100B10008093B000E32FF0E0EE0FFF1FEE58FF4F81
:100B2000A591B4912FB7F894662321F48C919095F8
:100B3000892302C08C91892B8C932FBF0895682F35
:100B400070E0CB0182559F4FFC012491CB0186566A
:100B50009F4FFC0144916A577F4FFB019491992369
:100B600019F420E030E03CC0222351F1233071F031
:100B7000243028F42130A1F0223011F514C02630A1
:100B8000B1F02730C1F02430D9F404C08091800046
:100B90008F7703C0809180008F7D8093800010C08C
:100BA00084B58F7702C084B58F7D84BD09C08091E4
:100BB000B0008F7703C08091B0008F7D8093B0002C
:100BC000892F90E0880F991F84589F4FFC01A591B1
:100BD000B4918C9120E030E0842311F021E030E0EA
:100BE000C9010895CF93DF930E9471040E941F03EF
:100BF000C0E0D0E00E94F4012097E1F30E940000E1
:100C0000F9CF97FB092E07260AD077FD04D00CD028
:100C100006D000201AF4709561957F4F0895F6F77D
:100C2000909581959F4F0895AA1BBB1B51E107C06A
:100C3000AA1FBB1FA617B70710F0A61BB70B881F6C
:100C4000991F5A95A9F780959095BC01CD010895FB
:100C5000EE0FFF1F0590F491E02D0994F894FFCF5B
:00000001FF
