:100000000C9461000C947E000C947E000C947E0095
:100010000C947E000C947E000C947E000C947E0068
:100020000C947E000C947E000C947E000C947E0058
:100030000C947E000C947E000C947E000C947E0048
:100040000C94E7000C947E000C947E000C947E00CF
:100050000C947E000C947E000C947E000C947E0028
:100060000C947E000C947E00000000002400270009
:100070002A0000000000250028002B0000000000DE
:1000800023002600290004040404040404040202DA
:100090000202020203030303030301020408102007
:1000A0004080010204081020010204081020000012
:1000B0000007000201000003040600000000000029
:1000C000000011241FBECFEFD8E0DEBFCDBF11E08E
:1000D000A0E0B1E0EEE8F5E002C005900D92A0309E
:1000E000B107D9F711E0A0E0B1E001C01D92A9303D
:1000F000B107E1F70E94B6020C94C5020C9400000F
:10010000CF93DF93C0E0D0E089E06FEF70E00E9412
:10011000C301CE01837090708130910579F08230F7
:1001200091051CF4892B39F021C08230910569F0CA
:100130000397E1F40DC084E061E002C084E060E078
:100140000E94620287E061E009C084E060E002C0D2
:1001500084E061E00E94620287E060E00E94620247
:1001600062E370E080E090E00E942F012196C832A7
:10017000D10551F6DF91CF91089510926000E1E82A
:10018000F0E08081887F8160808389E061E00E9467
:10019000230286E061E00E94230284E061E00E9485
:1001A000230285E061E00E94230287E061E00E9473
:1001B000230286E060E00E94620285E060E00E9427
:1001C000620289E06FEF70E00E94C30108951F9200
:1001D0000F920FB60F9211242F933F938F939F93FB
:1001E000AF93BF938091040190910501A091060106
:1001F000B0910701309108010196A11DB11D232F77
:100200002D5F2D3720F02D570196A11DB11D209394
:1002100008018093040190930501A0930601B09317
:1002200007018091000190910101A0910201B0911C
:1002300003010196A11DB11D80930001909301015E
:10024000A0930201B0930301BF91AF919F918F9151
:100250003F912F910F900FBE0F901F9018959B010B
:10026000AC017FB7F8948091000190910101A091B9
:100270000201B091030166B5A89B05C06F3F19F05C
:100280000196A11DB11D7FBFBA2FA92F982F8827D6
:10029000860F911DA11DB11D62E0880F991FAA1F35
:1002A000BB1F6A95D1F7BC012DC0FFB7F8948091B0
:1002B000000190910101A0910201B0910301E6B506
:1002C000A89B05C0EF3F19F00196A11DB11DFFBF0E
:1002D000BA2FA92F982F88278E0F911DA11DB11D10
:1002E000E2E0880F991FAA1FBB1FEA95D1F7861B72
:1002F000970B885E9340C8F22150304040405040F8
:1003000068517C4F211531054105510571F608955D
:10031000789484B5826084BD84B5816084BD85B5E0
:10032000826085BD85B5816085BDEEE6F0E08081A7
:1003300081608083E1E8F0E01082808182608083C8
:10034000808181608083E0E8F0E08081816080834B
:10035000E1EBF0E0808184608083E0EBF0E080817D
:1003600081608083EAE7F0E080818460808380811F
:1003700082608083808181608083808180688083C7
:100380001092C10008951F93CF93DF93182FEB01B4
:1003900061E00E942302209709F44AC0CF3FD105B3
:1003A00009F449C0E12FF0E0E255FF4F849183301A
:1003B000C1F0843028F4813051F08230B1F50CC0A6
:1003C000863019F1873049F1843079F514C084B54D
:1003D000806884BDC7BD33C084B5806284BDC8BD9C
:1003E0002EC080918000806880938000D093890027
:1003F000C093880024C08091800080628093800038
:10040000D0938B00C0938A001AC08091B00080689E
:100410008093B000C093B30012C08091B00080629E
:100420008093B000C093B4000AC0C038D1051CF45A
:10043000812F60E002C0812F61E00E946202DF91A3
:10044000CF911F910895CF93DF93482F50E0CA01B9
:1004500086569F4FFC0134914A575F4FFA018491B1
:10046000882369F190E0880F991FFC01E859FF4F3C
:10047000A591B491FC01EE58FF4FC591D49166232C
:1004800051F42FB7F8948C91932F909589238C93E6
:10049000888189230BC0623061F42FB7F8948C9166
:1004A000932F909589238C938881832B88832FBFEA
:1004B00006C09FB7F8948C91832B8C939FBFDF91DC
:1004C000CF910895482F50E0CA0182559F4FFC01FB
:1004D0002491CA0186569F4FFC0194914A575F4F61
:1004E000FA013491332309F440C0222351F123301F
:1004F00071F0243028F42130A1F0223011F514C01D
:100500002630B1F02730C1F02430D9F404C08091F6
:1005100080008F7703C0809180008F7D8093800062
:1005200010C084B58F7702C084B58F7D84BD09C0AB
:100530008091B0008F7703C08091B0008F7D809351
:10054000B000E32FF0E0EE0FFF1FEE58FF4FA59134
:10055000B4912FB7F894662321F48C919095892358
:1005600002C08C91892B8C932FBF0895CF93DF937A
:100570000E9488010E94BD00C0E0D0E00E9480007F
:0E0580002097E1F30E940000F9CFF894FFCF1E
:00000001FF
