:100000000C9461000C947E000C947E000C947E0095
:100010000C947E000C947E000C947E000C947E0068
:100020000C947E000C947E000C947E000C947E0058
:100030000C947E000C947E000C947E000C947E0048
:100040000C9421010C947E000C947E000C947E0094
:100050000C947E000C947E000C947E000C947E0028
:100060000C947E000C947E00000000002400270009
:100070002A0000000000250028002B0000000000DE
:1000800023002600290004040404040404040202DA
:100090000202020203030303030301020408102007
:1000A0004080010204081020010204081020000012
:1000B0000007000201000003040600000000000029
:1000C000000011241FBECFEFD8E0DEBFCDBF11E08E
:1000D000A0E0B1E0E2E0F6E002C005900D92A230AF
:1000E000B107D9F711E0A2E0B1E001C01D92A33140
:1000F000B107E1F70E94F0020C94FF020C9400009B
:100100000F931F93CF93DF9382E390E090930701C7
:1001100080930601C0E0D0E003E010E04BC0809186
:100120000201909103018130910541F4CE01837069
:1001300090709801281B390BC90105C0892B39F42F
:10014000CE0183709070909305018093040180919B
:100150000401909105018130910579F0823091057B
:100160001CF4892B39F025C08230910569F0039782
:1001700001F50DC084E061E002C084E060E00E940F
:100180009C0287E061E009C084E060E002C084E096
:1001900061E00E949C0287E060E00E949C02609106
:1001A000060170910701882777FD8095982F0E949E
:1001B000690121968091000190910101C817D9072A
:1001C0000CF4ADCFDF91CF911F910F910895109254
:1001D0006000E1E8F0E08081887F8160808389E0D1
:1001E00061E00E945D0286E061E00E945D0284E0C1
:1001F00061E00E945D0285E061E00E945D0287E0AF
:1002000061E00E945D0286E060E00E949C0285E061
:1002100060E00E949C0289E06FEF70E00E94FD01A7
:1002200084E190E0909309018093080184E690E0D6
:10023000909307018093060110920301109202012E
:1002400008951F920F920FB60F9211242F933F9390
:100250008F939F93AF93BF9380910E0190910F0165
:10026000A0911001B0911101309112010196A11DD0
:10027000B11D232F2D5F2D3720F02D570196A11D85
:10028000B11D2093120180930E0190930F01A09352
:100290001001B093110180910A0190910B01A0917E
:1002A0000C01B0910D010196A11DB11D80930A01B1
:1002B00090930B01A0930C01B0930D01BF91AF91EE
:1002C0009F918F913F912F910F900FBE0F901F9094
:1002D00018959B01AC017FB7F89480910A01909129
:1002E0000B01A0910C01B0910D0166B5A89B05C052
:1002F0006F3F19F00196A11DB11D7FBFBA2FA92F25
:10030000982F8827860F911DA11DB11D62E0880FCF
:10031000991FAA1FBB1F6A95D1F7BC012DC0FFB75B
:10032000F89480910A0190910B01A0910C01B09179
:100330000D01E6B5A89B05C0EF3F19F00196A11D80
:10034000B11DFFBFBA2FA92F982F88278E0F911D9F
:10035000A11DB11DE2E0880F991FAA1FBB1FEA95DE
:10036000D1F7861B970B885E9340C8F2215030402E
:100370004040504068517C4F2115310541055105E1
:1003800071F60895789484B5826084BD84B58160E7
:1003900084BD85B5826085BD85B5816085BDEEE68D
:1003A000F0E0808181608083E1E8F0E0108280816C
:1003B00082608083808181608083E0E8F0E08081DA
:1003C00081608083E1EBF0E0808184608083E0EBFA
:1003D000F0E0808181608083EAE7F0E080818460E2
:1003E000808380818260808380818160808380813E
:1003F000806880831092C10008951F93CF93DF938C
:10040000182FEB0161E00E945D02209709F44AC0B9
:10041000CF3FD10509F449C0E12FF0E0E255FF4F8D
:1004200084918330C1F0843028F4813051F08230DF
:10043000B1F50CC0863019F1873049F1843079F577
:1004400014C084B5806884BDC7BD33C084B58062E4
:1004500084BDC8BD2EC080918000806880938000DC
:10046000D0938900C093880024C08091800080626E
:1004700080938000D0938B00C0938A001AC0809133
:10048000B00080688093B000C093B30012C0809128
:10049000B00080628093B000C093B4000AC0C0383E
:1004A000D1051CF4812F60E002C0812F61E00E9421
:1004B0009C02DF91CF911F910895CF93DF93482F36
:1004C00050E0CA0186569F4FFC0134914A575F4F56
:1004D000FA018491882369F190E0880F991FFC014B
:1004E000E859FF4FA591B491FC01EE58FF4FC5911B
:1004F000D491662351F42FB7F8948C91932F909553
:1005000089238C93888189230BC0623061F42FB7D3
:10051000F8948C91932F909589238C938881832BC9
:1005200088832FBF06C09FB7F8948C91832B8C9340
:100530009FBFDF91CF910895482F50E0CA018255A7
:100540009F4FFC012491CA0186569F4FFC01949154
:100550004A575F4FFA013491332309F440C02223F4
:1005600051F1233071F0243028F42130A1F02230F1
:1005700011F514C02630B1F02730C1F02430D9F481
:1005800004C0809180008F7703C0809180008F7DB0
:100590008093800010C084B58F7702C084B58F7DB2
:1005A00084BD09C08091B0008F7703C08091B000F6
:1005B0008F7D8093B000E32FF0E0EE0FFF1FEE5829
:1005C000FF4FA591B4912FB7F894662321F48C9135
:1005D0009095892302C08C91892B8C932FBF08950D
:1005E000CF93DF930E94C2010E94E700C0E0D0E0F9
:1005F0000E9480002097E1F30E940000F9CFF89458
:02060000FFCF2A
:020602002000D6
:00000001FF
